{
  "_format": "hh-sol-artifact-1",
  "contractName": "NodeRegistry",
  "sourceName": "contracts/NodeRegistry.sol",
  "abi": [
    {
      "inputs": [],
      "stateMutability": "nonpayable",
      "type": "constructor"
    },
    {
      "anonymous": false,
      "inputs": [
        {
          "indexed": true,
          "internalType": "address",
          "name": "node",
          "type": "address"
        },
        {
          "indexed": false,
          "internalType": "string",
          "name": "did",
          "type": "string"
        },
        {
          "indexed": false,
          "internalType": "bytes",
          "name": "publicKey",
          "type": "bytes"
        }
      ],
      "name": "NodeRegistered",
      "type": "event"
    },
    {
      "anonymous": false,
      "inputs": [
        {
          "indexed": true,
          "internalType": "address",
          "name": "node",
          "type": "address"
        }
      ],
      "name": "NodeRevoked",
      "type": "event"
    },
    {
      "inputs": [
        {
          "internalType": "address",
          "name": "",
          "type": "address"
        }
      ],
      "name": "allowed",
      "outputs": [
        {
          "internalType": "bool",
          "name": "",
          "type": "bool"
        }
      ],
      "stateMutability": "view",
      "type": "function"
    },
    {
      "inputs": [
        {
          "internalType": "address",
          "name": "",
          "type": "address"
        }
      ],
      "name": "didOf",
      "outputs": [
        {
          "internalType": "string",
          "name": "",
          "type": "string"
        }
      ],
      "stateMutability": "view",
      "type": "function"
    },
    {
      "inputs": [
        {
          "internalType": "address",
          "name": "node",
          "type": "address"
        }
      ],
      "name": "isAllowed",
      "outputs": [
        {
          "internalType": "bool",
          "name": "",
          "type": "bool"
        }
      ],
      "stateMutability": "view",
      "type": "function"
    },
    {
      "inputs": [],
      "name": "owner",
      "outputs": [
        {
          "internalType": "address",
          "name": "",
          "type": "address"
        }
      ],
      "stateMutability": "view",
      "type": "function"
    },
    {
      "inputs": [
        {
          "internalType": "address",
          "name": "",
          "type": "address"
        }
      ],
      "name": "pubkeyOf",
      "outputs": [
        {
          "internalType": "bytes",
          "name": "",
          "type": "bytes"
        }
      ],
      "stateMutability": "view",
      "type": "function"
    },
    {
      "inputs": [
        {
          "internalType": "address",
          "name": "node",
          "type": "address"
        },
        {
          "internalType": "string",
          "name": "did",
          "type": "string"
        },
        {
          "internalType": "bytes",
          "name": "pubkey",
          "type": "bytes"
        }
      ],
      "name": "registerNode",
      "outputs": [],
      "stateMutability": "nonpayable",
      "type": "function"
    },
    {
      "inputs": [
        {
          "internalType": "address",
          "name": "node",
          "type": "address"
        }
      ],
      "name": "revokeNode",
      "outputs": [],
      "stateMutability": "nonpayable",
      "type": "function"
    }
  ],
  "bytecode": "0x608060405234801561001057600080fd5b50336000806101000a81548173ffffffffffffffffffffffffffffffffffffffff021916908373ffffffffffffffffffffffffffffffffffffffff160217905550610fe9806100606000396000f3fe608060405234801561001057600080fd5b506004361061007d5760003560e01c80638da5cb5b1161005b5780638da5cb5b146100fe578063b76a8bd21461011c578063babcc53914610138578063d63a8e11146101685761007d565b80632f54205e14610082578063364c707b146100b25780636b3ddcdb146100e2575b600080fd5b61009c600480360381019061009791906106e4565b610198565b6040516100a991906107a1565b60405180910390f35b6100cc60048036038101906100c791906106e4565b610238565b6040516100d99190610818565b60405180910390f35b6100fc60048036038101906100f79190610a10565b6102d8565b005b6101066104ac565b6040516101139190610aaa565b60405180910390f35b610136600480360381019061013191906106e4565b6104d0565b005b610152600480360381019061014d91906106e4565b6105fc565b60405161015f9190610ae0565b60405180910390f35b610182600480360381019061017d91906106e4565b610652565b60405161018f9190610ae0565b60405180910390f35b600360205280600052604060002060009150905080546101b790610b2a565b80601f01602080910402602001604051908101604052809291908181526020018280546101e390610b2a565b80156102305780601f1061020557610100808354040283529160200191610230565b820191906000526020600020905b81548152906001019060200180831161021357829003601f168201915b505050505081565b6002602052806000526040600020600091509050805461025790610b2a565b80601f016020809104026020016040519081016040528092919081815260200182805461028390610b2a565b80156102d05780601f106102a5576101008083540402835291602001916102d0565b820191906000526020600020905b8154815290600101906020018083116102b357829003601f168201915b505050505081565b60008054906101000a900473ffffffffffffffffffffffffffffffffffffffff1673ffffffffffffffffffffffffffffffffffffffff163373ffffffffffffffffffffffffffffffffffffffff1614610366576040517f08c379a000000000000000000000000000000000000000000000000000000000815260040161035d90610ba7565b60405180910390fd5b60018060008573ffffffffffffffffffffffffffffffffffffffff1673ffffffffffffffffffffffffffffffffffffffff16815260200190815260200160002060006101000a81548160ff02191690831515021790555081600260008573ffffffffffffffffffffffffffffffffffffffff1673ffffffffffffffffffffffffffffffffffffffff16815260200190815260200160002090816104099190610d7d565b5080600360008573ffffffffffffffffffffffffffffffffffffffff1673ffffffffffffffffffffffffffffffffffffffff16815260200190815260200160002090816104569190610eaa565b508273ffffffffffffffffffffffffffffffffffffffff167f7ea0e192f75337b4ab6d9c109bebc854963b60aba398cd3330ec0096d0b92897838360405161049f929190610f7c565b60405180910390a2505050565b60008054906101000a900473ffffffffffffffffffffffffffffffffffffffff1681565b60008054906101000a900473ffffffffffffffffffffffffffffffffffffffff1673ffffffffffffffffffffffffffffffffffffffff163373ffffffffffffffffffffffffffffffffffffffff161461055e576040517f08c379a000000000000000000000000000000000000000000000000000000000815260040161055590610ba7565b60405180910390fd5b6000600160008373ffffffffffffffffffffffffffffffffffffffff1673ffffffffffffffffffffffffffffffffffffffff16815260200190815260200160002060006101000a81548160ff0219169083151502179055508073ffffffffffffffffffffffffffffffffffffffff167f1ed1124975b36f977f88e26d9688d6772db1efc746521b431543fa5bc7e7d4a060405160405180910390a250565b6000600160008373ffffffffffffffffffffffffffffffffffffffff1673ffffffffffffffffffffffffffffffffffffffff16815260200190815260200160002060009054906101000a900460ff169050919050565b60016020528060005260406000206000915054906101000a900460ff1681565b6000604051905090565b600080fd5b600080fd5b600073ffffffffffffffffffffffffffffffffffffffff82169050919050565b60006106b182610686565b9050919050565b6106c1816106a6565b81146106cc57600080fd5b50565b6000813590506106de816106b8565b92915050565b6000602082840312156106fa576106f961067c565b5b6000610708848285016106cf565b91505092915050565b600081519050919050565b600082825260208201905092915050565b60005b8381101561074b578082015181840152602081019050610730565b60008484015250505050565b6000601f19601f8301169050919050565b600061077382610711565b61077d818561071c565b935061078d81856020860161072d565b61079681610757565b840191505092915050565b600060208201905081810360008301526107bb8184610768565b905092915050565b600081519050919050565b600082825260208201905092915050565b60006107ea826107c3565b6107f481856107ce565b935061080481856020860161072d565b61080d81610757565b840191505092915050565b6000602082019050818103600083015261083281846107df565b905092915050565b600080fd5b600080fd5b7f4e487b7100000000000000000000000000000000000000000000000000000000600052604160045260246000fd5b61087c82610757565b810181811067ffffffffffffffff8211171561089b5761089a610844565b5b80604052505050565b60006108ae610672565b90506108ba8282610873565b919050565b600067ffffffffffffffff8211156108da576108d9610844565b5b6108e382610757565b9050602081019050919050565b82818337600083830152505050565b600061091261090d846108bf565b6108a4565b90508281526020810184848401111561092e5761092d61083f565b5b6109398482856108f0565b509392505050565b600082601f8301126109565761095561083a565b5b81356109668482602086016108ff565b91505092915050565b600067ffffffffffffffff82111561098a57610989610844565b5b61099382610757565b9050602081019050919050565b60006109b36109ae8461096f565b6108a4565b9050828152602081018484840111156109cf576109ce61083f565b5b6109da8482856108f0565b509392505050565b600082601f8301126109f7576109f661083a565b5b8135610a078482602086016109a0565b91505092915050565b600080600060608486031215610a2957610a2861067c565b5b6000610a37868287016106cf565b935050602084013567ffffffffffffffff811115610a5857610a57610681565b5b610a6486828701610941565b925050604084013567ffffffffffffffff811115610a8557610a84610681565b5b610a91868287016109e2565b9150509250925092565b610aa4816106a6565b82525050565b6000602082019050610abf6000830184610a9b565b92915050565b60008115159050919050565b610ada81610ac5565b82525050565b6000602082019050610af56000830184610ad1565b92915050565b7f4e487b7100000000000000000000000000000000000000000000000000000000600052602260045260246000fd5b60006002820490506001821680610b4257607f821691505b602082108103610b5557610b54610afb565b5b50919050565b7f6e6f74206f776e65720000000000000000000000000000000000000000000000600082015250565b6000610b916009836107ce565b9150610b9c82610b5b565b602082019050919050565b60006020820190508181036000830152610bc081610b84565b9050919050565b60008190508160005260206000209050919050565b60006020601f8301049050919050565b600082821b905092915050565b600060088302610c297fffffffffffffffffffffffffffffffffffffffffffffffffffffffffffffffff82610bec565b610c338683610bec565b95508019841693508086168417925050509392505050565b6000819050919050565b6000819050919050565b6000610c7a610c75610c7084610c4b565b610c55565b610c4b565b9050919050565b6000819050919050565b610c9483610c5f565b610ca8610ca082610c81565b848454610bf9565b825550505050565b600090565b610cbd610cb0565b610cc8818484610c8b565b505050565b5b81811015610cec57610ce1600082610cb5565b600181019050610cce565b5050565b601f821115610d3157610d0281610bc7565b610d0b84610bdc565b81016020851015610d1a578190505b610d2e610d2685610bdc565b830182610ccd565b50505b505050565b600082821c905092915050565b6000610d5460001984600802610d36565b1980831691505092915050565b6000610d6d8383610d43565b9150826002028217905092915050565b610d86826107c3565b67ffffffffffffffff811115610d9f57610d9e610844565b5b610da98254610b2a565b610db4828285610cf0565b600060209050601f831160018114610de75760008415610dd5578287015190505b610ddf8582610d61565b865550610e47565b601f198416610df586610bc7565b60005b82811015610e1d57848901518255600182019150602085019450602081019050610df8565b86831015610e3a5784890151610e36601f891682610d43565b8355505b6001600288020188555050505b505050505050565b60008190508160005260206000209050919050565b601f821115610ea557610e7681610e4f565b610e7f84610bdc565b81016020851015610e8e578190505b610ea2610e9a85610bdc565b830182610ccd565b50505b505050565b610eb382610711565b67ffffffffffffffff811115610ecc57610ecb610844565b5b610ed68254610b2a565b610ee1828285610e64565b600060209050601f831160018114610f145760008415610f02578287015190505b610f0c8582610d61565b865550610f74565b601f198416610f2286610e4f565b60005b82811015610f4a57848901518255600182019150602085019450602081019050610f25565b86831015610f675784890151610f63601f891682610d43565b8355505b6001600288020188555050505b505050505050565b60006040820190508181036000830152610f9681856107df565b90508181036020830152610faa8184610768565b9050939250505056fea26469706673582212209b3ebfaa700809e113397818d9bd3167244013c3f4164025e058e5ebec50a29c64736f6c63430008180033",
  "linkReferences": {},
  "deployedLinkReferences": {}
}