{"contracts/NodeRegistry.sol":{"NodeRegistry":{"abi":[{"inputs":[],"stateMutability":"nonpayable","type":"constructor"},{"anonymous":false,"inputs":[{"indexed":true,"internalType":"address","name":"node","type":"address"},{"indexed":false,"internalType":"string","name":"did","type":"string"},{"indexed":false,"internalType":"bytes","name":"publicKey","type":"bytes"}],"name":"NodeRegistered","type":"event"},{"anonymous":false,"inputs":[{"indexed":true,"internalType":"address","name":"node","type":"address"}],"name":"NodeRevoked","type":"event"},{"inputs":[{"internalType":"address","name":"","type":"address"}],"name":"allowed","outputs":[{"internalType":"bool","name":"","type":"bool"}],"stateMutability":"view","type":"function"},{"inputs":[{"internalType":"address","name":"","type":"address"}],"name":"didOf","outputs":[{"internalType":"string","name":"","type":"string"}],"stateMutability":"view","type":"function"},{"inputs":[{"internalType":"address","name":"node","type":"address"}],"name":"isAllowed","outputs":[{"internalType":"bool","name":"","type":"bool"}],"stateMutability":"view","type":"function"},{"inputs":[],"name":"owner","outputs":[{"internalType":"address","name":"","type":"address"}],"stateMutability":"view","type":"function"},{"inputs":[{"internalType":"address","name":"","type":"address"}],"name":"pubkeyOf","outputs":[{"internalType":"bytes","name":"","type":"bytes"}],"stateMutability":"view","type":"function"},{"inputs":[{"internalType":"address","name":"node","type":"address"},{"internalType":"string","name":"did","type":"string"},{"internalType":"bytes","name":"pubkey","type":"bytes"}],"name":"registerNode","outputs":[],"stateMutability":"nonpayable","type":"function"},{"inputs":[{"internalType":"address","name":"node","type":"address"}],"name":"revokeNode","outputs":[],"stateMutability":"nonpayable","type":"function"}],"evm":{"bytecode":{"linkReferences":{},"object":"608060405234801561001057600080fd5b50336000806101000a81548173ffffffffffffffffffffffffffffffffffffffff021916908373ffffffffffffffffffffffffffffffffffffffff160217905550610fe9806100606000396000f3fe608060405234801561001057600080fd5b506004361061007d5760003560e01c80638da5cb5b1161005b5780638da5cb5b146100fe578063b76a8bd21461011c578063babcc53914610138578063d63a8e11146101685761007d565b80632f54205e14610082578063364c707b146100b25780636b3ddcdb146100e2575b600080fd5b61009c600480360381019061009791906106e4565b610198565b6040516100a991906107a1565b60405180910390f35b6100cc60048036038101906100c791906106e4565b610238565b6040516100d99190610818565b60405180910390f35b6100fc60048036038101906100f79190610a10565b6102d8565b005b6101066104ac565b6040516101139190610aaa565b60405180910390f35b610136600480360381019061013191906106e4565b6104d0565b005b610152600480360381019061014d91906106e4565b6105fc565b60405161015f9190610ae0565b60405180910390f35b610182600480360381019061017d91906106e4565b610652565b60405161018f9190610ae0565b60405180910390f35b600360205280600052604060002060009150905080546101b790610b2a565b80601f01602080910402602001604051908101604052809291908181526020018280546101e390610b2a565b80156102305780601f1061020557610100808354040283529160200191610230565b820191906000526020600020905b81548152906001019060200180831161021357829003601f168201915b505050505081565b6002602052806000526040600020600091509050805461025790610b2a565b80601f016020809104026020016040519081016040528092919081815260200182805461028390610b2a565b80156102d05780601f106102a5576101008083540402835291602001916102d0565b820191906000526020600020905b8154815290600101906020018083116102b357829003601f168201915b505050505081565b60008054906101000a900473ffffffffffffffffffffffffffffffffffffffff1673ffffffffffffffffffffffffffffffffffffffff163373ffffffffffffffffffffffffffffffffffffffff1614610366576040517f08c379a000000000000000000000000000000000000000000000000000000000815260040161035d90610ba7565b60405180910390fd5b60018060008573ffffffffffffffffffffffffffffffffffffffff1673ffffffffffffffffffffffffffffffffffffffff16815260200190815260200160002060006101000a81548160ff02191690831515021790555081600260008573ffffffffffffffffffffffffffffffffffffffff1673ffffffffffffffffffffffffffffffffffffffff16815260200190815260200160002090816104099190610d7d565b5080600360008573ffffffffffffffffffffffffffffffffffffffff1673ffffffffffffffffffffffffffffffffffffffff16815260200190815260200160002090816104569190610eaa565b508273ffffffffffffffffffffffffffffffffffffffff167f7ea0e192f75337b4ab6d9c109bebc854963b60aba398cd3330ec0096d0b92897838360405161049f929190610f7c565b60405180910390a2505050565b60008054906101000a900473ffffffffffffffffffffffffffffffffffffffff1681565b60008054906101000a900473ffffffffffffffffffffffffffffffffffffffff1673ffffffffffffffffffffffffffffffffffffffff163373ffffffffffffffffffffffffffffffffffffffff161461055e576040517f08c379a000000000000000000000000000000000000000000000000000000000815260040161055590610ba7565b60405180910390fd5b6000600160008373ffffffffffffffffffffffffffffffffffffffff1673ffffffffffffffffffffffffffffffffffffffff16815260200190815260200160002060006101000a81548160ff0219169083151502179055508073ffffffffffffffffffffffffffffffffffffffff167f1ed1124975b36f977f88e26d9688d6772db1efc746521b431543fa5bc7e7d4a060405160405180910390a250565b6000600160008373ffffffffffffffffffffffffffffffffffffffff1673ffffffffffffffffffffffffffffffffffffffff16815260200190815260200160002060009054906101000a900460ff169050919050565b60016020528060005260406000206000915054906101000a900460ff1681565b6000604051905090565b600080fd5b600080fd5b600073ffffffffffffffffffffffffffffffffffffffff82169050919050565b60006106b182610686565b9050919050565b6106c1816106a6565b81146106cc57600080fd5b50565b6000813590506106de816106b8565b92915050565b6000602082840312156106fa576106f961067c565b5b6000610708848285016106cf565b91505092915050565b600081519050919050565b600082825260208201905092915050565b60005b8381101561074b578082015181840152602081019050610730565b60008484015250505050565b6000601f19601f8301169050919050565b600061077382610711565b61077d818561071c565b935061078d81856020860161072d565b61079681610757565b840191505092915050565b600060208201905081810360008301526107bb8184610768565b905092915050565b600081519050919050565b600082825260208201905092915050565b60006107ea826107c3565b6107f481856107ce565b935061080481856020860161072d565b61080d81610757565b840191505092915050565b6000602082019050818103600083015261083281846107df565b905092915050565b600080fd5b600080fd5b7f4e487b7100000000000000000000000000000000000000000000000000000000600052604160045260246000fd5b61087c82610757565b810181811067ffffffffffffffff8211171561089b5761089a610844565b5b80604052505050565b60006108ae610672565b90506108ba8282610873565b919050565b600067ffffffffffffffff8211156108da576108d9610844565b5b6108e382610757565b9050602081019050919050565b82818337600083830152505050565b600061091261090d846108bf565b6108a4565b90508281526020810184848401111561092e5761092d61083f565b5b6109398482856108f0565b509392505050565b600082601f8301126109565761095561083a565b5b81356109668482602086016108ff565b91505092915050565b600067ffffffffffffffff82111561098a57610989610844565b5b61099382610757565b9050602081019050919050565b60006109b36109ae8461096f565b6108a4565b9050828152602081018484840111156109cf576109ce61083f565b5b6109da8482856108f0565b509392505050565b600082601f8301126109f7576109f661083a565b5b8135610a078482602086016109a0565b91505092915050565b600080600060608486031215610a2957610a2861067c565b5b6000610a37868287016106cf565b935050602084013567ffffffffffffffff811115610a5857610a57610681565b5b610a6486828701610941565b925050604084013567ffffffffffffffff811115610a8557610a84610681565b5b610a91868287016109e2565b9150509250925092565b610aa4816106a6565b82525050565b6000602082019050610abf6000830184610a9b565b92915050565b60008115159050919050565b610ada81610ac5565b82525050565b6000602082019050610af56000830184610ad1565b92915050565b7f4e487b7100000000000000000000000000000000000000000000000000000000600052602260045260246000fd5b60006002820490506001821680610b4257607f821691505b602082108103610b5557610b54610afb565b5b50919050565b7f6e6f74206f776e65720000000000000000000000000000000000000000000000600082015250565b6000610b916009836107ce565b9150610b9c82610b5b565b602082019050919050565b60006020820190508181036000830152610bc081610b84565b9050919050565b60008190508160005260206000209050919050565b60006020601f8301049050919050565b600082821b905092915050565b600060088302610c297fffffffffffffffffffffffffffffffffffffffffffffffffffffffffffffffff82610bec565b610c338683610bec565b95508019841693508086168417925050509392505050565b6000819050919050565b6000819050919050565b6000610c7a610c75610c7084610c4b565b610c55565b610c4b565b9050919050565b6000819050919050565b610c9483610c5f565b610ca8610ca082610c81565b848454610bf9565b825550505050565b600090565b610cbd610cb0565b610cc8818484610c8b565b505050565b5b81811015610cec57610ce1600082610cb5565b600181019050610cce565b5050565b601f821115610d3157610d0281610bc7565b610d0b84610bdc565b81016020851015610d1a578190505b610d2e610d2685610bdc565b830182610ccd565b50505b505050565b600082821c905092915050565b6000610d5460001984600802610d36565b1980831691505092915050565b6000610d6d8383610d43565b9150826002028217905092915050565b610d86826107c3565b67ffffffffffffffff811115610d9f57610d9e610844565b5b610da98254610b2a565b610db4828285610cf0565b600060209050601f831160018114610de75760008415610dd5578287015190505b610ddf8582610d61565b865550610e47565b601f198416610df586610bc7565b60005b82811015610e1d57848901518255600182019150602085019450602081019050610df8565b86831015610e3a5784890151610e36601f891682610d43565b8355505b6001600288020188555050505b505050505050565b60008190508160005260206000209050919050565b601f821115610ea557610e7681610e4f565b610e7f84610bdc565b81016020851015610e8e578190505b610ea2610e9a85610bdc565b830182610ccd565b50505b505050565b610eb382610711565b67ffffffffffffffff811115610ecc57610ecb610844565b5b610ed68254610b2a565b610ee1828285610e64565b600060209050601f831160018114610f145760008415610f02578287015190505b610f0c8582610d61565b865550610f74565b601f198416610f2286610e4f565b60005b82811015610f4a57848901518255600182019150602085019450602081019050610f25565b86831015610f675784890151610f63601f891682610d43565b8355505b6001600288020188555050505b505050505050565b60006040820190508181036000830152610f9681856107df565b90508181036020830152610faa8184610768565b9050939250505056fea26469706673582212209b3ebfaa700809e113397818d9bd3167244013c3f4164025e058e5ebec50a29c64736f6c63430008180033","opcodes":"PUSH1 0x80 PUSH1 0x40 MSTORE CALLVALUE DUP1 ISZERO PUSH2 0x10 JUMPI PUSH1 0x0 DUP1 REVERT JUMPDEST POP CALLER PUSH1 0x0 DUP1 PUSH2 0x100 EXP DUP2 SLOAD DUP2 PUSH20 0xFFFFFFFFFFFFFFFFFFFFFFFFFFFFFFFFFFFFFFFF MUL NOT AND SWAP1 DUP4 PUSH20 0xFFFFFFFFFFFFFFFFFFFFFFFFFFFFFFFFFFFFFFFF AND MUL OR SWAP1 SSTORE POP PUSH2 0xFE9 DUP1 PUSH2 0x60 PUSH1 0x0 CODECOPY PUSH1 0x0 RETURN INVALID PUSH1 0x80 PUSH1 0x40 MSTORE CALLVALUE DUP1 ISZERO PUSH2 0x10 JUMPI PUSH1 0x0 DUP1 REVERT JUMPDEST POP PUSH1 0x4 CALLDATASIZE LT PUSH2 0x7D JUMPI PUSH1 0x0 CALLDATALOAD PUSH1 0xE0 SHR DUP1 PUSH4 0x8DA5CB5B GT PUSH2 0x5B JUMPI DUP1 PUSH4 0x8DA5CB5B EQ PUSH2 0xFE JUMPI DUP1 PUSH4 0xB76A8BD2 EQ PUSH2 0x11C JUMPI DUP1 PUSH4 0xBABCC539 EQ PUSH2 0x138 JUMPI DUP1 PUSH4 0xD63A8E11 EQ PUSH2 0x168 JUMPI PUSH2 0x7D JUMP JUMPDEST DUP1 PUSH4 0x2F54205E EQ PUSH2 0x82 JUMPI DUP1 PUSH4 0x364C707B EQ PUSH2 0xB2 JUMPI DUP1 PUSH4 0x6B3DDCDB EQ PUSH2 0xE2 JUMPI JUMPDEST PUSH1 0x0 DUP1 REVERT JUMPDEST PUSH2 0x9C PUSH1 0x4 DUP1 CALLDATASIZE SUB DUP2 ADD SWAP1 PUSH2 0x97 SWAP2 SWAP1 PUSH2 0x6E4 JUMP JUMPDEST PUSH2 0x198 JUMP JUMPDEST PUSH1 0x40 MLOAD PUSH2 0xA9 SWAP2 SWAP1 PUSH2 0x7A1 JUMP JUMPDEST PUSH1 0x40 MLOAD DUP1 SWAP2 SUB SWAP1 RETURN JUMPDEST PUSH2 0xCC PUSH1 0x4 DUP1 CALLDATASIZE SUB DUP2 ADD SWAP1 PUSH2 0xC7 SWAP2 SWAP1 PUSH2 0x6E4 JUMP JUMPDEST PUSH2 0x238 JUMP JUMPDEST PUSH1 0x40 MLOAD PUSH2 0xD9 SWAP2 SWAP1 PUSH2 0x818 JUMP JUMPDEST PUSH1 0x40 MLOAD DUP1 SWAP2 SUB SWAP1 RETURN JUMPDEST PUSH2 0xFC PUSH1 0x4 DUP1 CALLDATASIZE SUB DUP2 ADD SWAP1 PUSH2 0xF7 SWAP2 SWAP1 PUSH2 0xA10 JUMP JUMPDEST PUSH2 0x2D8 JUMP JUMPDEST STOP JUMPDEST PUSH2 0x106 PUSH2 0x4AC JUMP JUMPDEST PUSH1 0x40 MLOAD PUSH2 0x113 SWAP2 SWAP1 PUSH2 0xAAA JUMP JUMPDEST PUSH1 0x40 MLOAD DUP1 SWAP2 SUB SWAP1 RETURN JUMPDEST PUSH2 0x136 PUSH1 0x4 DUP1 CALLDATASIZE SUB DUP2 ADD SWAP1 PUSH2 0x131 SWAP2 SWAP1 PUSH2 0x6E4 JUMP JUMPDEST PUSH2 0x4D0 JUMP JUMPDEST STOP JUMPDEST PUSH2 0x152 PUSH1 0x4 DUP1 CALLDATASIZE SUB DUP2 ADD SWAP1 PUSH2 0x14D SWAP2 SWAP1 PUSH2 0x6E4 JUMP JUMPDEST PUSH2 0x5FC JUMP JUMPDEST PUSH1 0x40 MLOAD PUSH2 0x15F SWAP2 SWAP1 PUSH2 0xAE0 JUMP JUMPDEST PUSH1 0x40 MLOAD DUP1 SWAP2 SUB SWAP1 RETURN JUMPDEST PUSH2 0x182 PUSH1 0x4 DUP1 CALLDATASIZE SUB DUP2 ADD SWAP1 PUSH2 0x17D SWAP2 SWAP1 PUSH2 0x6E4 JUMP JUMPDEST PUSH2 0x652 JUMP JUMPDEST PUSH1 0x40 MLOAD PUSH2 0x18F SWAP2 SWAP1 PUSH2 0xAE0 JUMP JUMPDEST PUSH1 0x40 MLOAD DUP1 SWAP2 SUB SWAP1 RETURN JUMPDEST PUSH1 0x3 PUSH1 0x20 MSTORE DUP1 PUSH1 0x0 MSTORE PUSH1 0x40 PUSH1 0x0 KECCAK256 PUSH1 0x0 SWAP2 POP SWAP1 POP DUP1 SLOAD PUSH2 0x1B7 SWAP1 PUSH2 0xB2A JUMP JUMPDEST DUP1 PUSH1 0x1F ADD PUSH1 0x20 DUP1 SWAP2 DIV MUL PUSH1 0x20 ADD PUSH1 0x40 MLOAD SWAP1 DUP2 ADD PUSH1 0x40 MSTORE DUP1 SWAP3 SWAP2 SWAP1 DUP2 DUP2 MSTORE PUSH1 0x20 ADD DUP3 DUP1 SLOAD PUSH2 0x1E3 SWAP1 PUSH2 0xB2A JUMP JUMPDEST DUP1 ISZERO PUSH2 0x230 JUMPI DUP1 PUSH1 0x1F LT PUSH2 0x205 JUMPI PUSH2 0x100 DUP1 DUP4 SLOAD DIV MUL DUP4 MSTORE SWAP2 PUSH1 0x20 ADD SWAP2 PUSH2 0x230 JUMP JUMPDEST DUP3 ADD SWAP2 SWAP1 PUSH1 0x0 MSTORE PUSH1 0x20 PUSH1 0x0 KECCAK256 SWAP1 JUMPDEST DUP2 SLOAD DUP2 MSTORE SWAP1 PUSH1 0x1 ADD SWAP1 PUSH1 0x20 ADD DUP1 DUP4 GT PUSH2 0x213 JUMPI DUP3 SWAP1 SUB PUSH1 0x1F AND DUP3 ADD SWAP2 JUMPDEST POP POP POP POP POP DUP2 JUMP JUMPDEST PUSH1 0x2 PUSH1 0x20 MSTORE DUP1 PUSH1 0x0 MSTORE PUSH1 0x40 PUSH1 0x0 KECCAK256 PUSH1 0x0 SWAP2 POP SWAP1 POP DUP1 SLOAD PUSH2 0x257 SWAP1 PUSH2 0xB2A JUMP JUMPDEST DUP1 PUSH1 0x1F ADD PUSH1 0x20 DUP1 SWAP2 DIV MUL PUSH1 0x20 ADD PUSH1 0x40 MLOAD SWAP1 DUP2 ADD PUSH1 0x40 MSTORE DUP1 SWAP3 SWAP2 SWAP1 DUP2 DUP2 MSTORE PUSH1 0x20 ADD DUP3 DUP1 SLOAD PUSH2 0x283 SWAP1 PUSH2 0xB2A JUMP JUMPDEST DUP1 ISZERO PUSH2 0x2D0 JUMPI DUP1 PUSH1 0x1F LT PUSH2 0x2A5 JUMPI PUSH2 0x100 DUP1 DUP4 SLOAD DIV MUL DUP4 MSTORE SWAP2 PUSH1 0x20 ADD SWAP2 PUSH2 0x2D0 JUMP JUMPDEST DUP3 ADD SWAP2 SWAP1 PUSH1 0x0 MSTORE PUSH1 0x20 PUSH1 0x0 KECCAK256 SWAP1 JUMPDEST DUP2 SLOAD DUP2 MSTORE SWAP1 PUSH1 0x1 ADD SWAP1 PUSH1 0x20 ADD DUP1 DUP4 GT PUSH2 0x2B3 JUMPI DUP3 SWAP1 SUB PUSH1 0x1F AND DUP3 ADD SWAP2 JUMPDEST POP POP POP POP POP DUP2 JUMP JUMPDEST PUSH1 0x0 DUP1 SLOAD SWAP1 PUSH2 0x100 EXP SWAP1 DIV PUSH20 0xFFFFFFFFFFFFFFFFFFFFFFFFFFFFFFFFFFFFFFFF AND PUSH20 0xFFFFFFFFFFFFFFFFFFFFFFFFFFFFFFFFFFFFFFFF AND CALLER PUSH20 0xFFFFFFFFFFFFFFFFFFFFFFFFFFFFFFFFFFFFFFFF AND EQ PUSH2 0x366 JUMPI PUSH1 0x40 MLOAD PUSH32 0x8C379A000000000000000000000000000000000000000000000000000000000 DUP2 MSTORE PUSH1 0x4 ADD PUSH2 0x35D SWAP1 PUSH2 0xBA7 JUMP JUMPDEST PUSH1 0x40 MLOAD DUP1 SWAP2 SUB SWAP1 REVERT JUMPDEST PUSH1 0x1 DUP1 PUSH1 0x0 DUP6 PUSH20 0xFFFFFFFFFFFFFFFFFFFFFFFFFFFFFFFFFFFFFFFF AND PUSH20 0xFFFFFFFFFFFFFFFFFFFFFFFFFFFFFFFFFFFFFFFF AND DUP2 MSTORE PUSH1 0x20 ADD SWAP1 DUP2 MSTORE PUSH1 0x20 ADD PUSH1 0x0 KECCAK256 PUSH1 0x0 PUSH2 0x100 EXP DUP2 SLOAD DUP2 PUSH1 0xFF MUL NOT AND SWAP1 DUP4 ISZERO ISZERO MUL OR SWAP1 SSTORE POP DUP2 PUSH1 0x2 PUSH1 0x0 DUP6 PUSH20 0xFFFFFFFFFFFFFFFFFFFFFFFFFFFFFFFFFFFFFFFF AND PUSH20 0xFFFFFFFFFFFFFFFFFFFFFFFFFFFFFFFFFFFFFFFF AND DUP2 MSTORE PUSH1 0x20 ADD SWAP1 DUP2 MSTORE PUSH1 0x20 ADD PUSH1 0x0 KECCAK256 SWAP1 DUP2 PUSH2 0x409 SWAP2 SWAP1 PUSH2 0xD7D JUMP JUMPDEST POP DUP1 PUSH1 0x3 PUSH1 0x0 DUP6 PUSH20 0xFFFFFFFFFFFFFFFFFFFFFFFFFFFFFFFFFFFFFFFF AND PUSH20 0xFFFFFFFFFFFFFFFFFFFFFFFFFFFFFFFFFFFFFFFF AND DUP2 MSTORE PUSH1 0x20 ADD SWAP1 DUP2 MSTORE PUSH1 0x20 ADD PUSH1 0x0 KECCAK256 SWAP1 DUP2 PUSH2 0x456 SWAP2 SWAP1 PUSH2 0xEAA JUMP JUMPDEST POP DUP3 PUSH20 0xFFFFFFFFFFFFFFFFFFFFFFFFFFFFFFFFFFFFFFFF AND PUSH32 0x7EA0E192F75337B4AB6D9C109BEBC854963B60ABA398CD3330EC0096D0B92897 DUP4 DUP4 PUSH1 0x40 MLOAD PUSH2 0x49F SWAP3 SWAP2 SWAP1 PUSH2 0xF7C JUMP JUMPDEST PUSH1 0x40 MLOAD DUP1 SWAP2 SUB SWAP1 LOG2 POP POP POP JUMP JUMPDEST PUSH1 0x0 DUP1 SLOAD SWAP1 PUSH2 0x100 EXP SWAP1 DIV PUSH20 0xFFFFFFFFFFFFFFFFFFFFFFFFFFFFFFFFFFFFFFFF AND DUP2 JUMP JUMPDEST PUSH1 0x0 DUP1 SLOAD SWAP1 PUSH2 0x100 EXP SWAP1 DIV PUSH20 0xFFFFFFFFFFFFFFFFFFFFFFFFFFFFFFFFFFFFFFFF AND PUSH20 0xFFFFFFFFFFFFFFFFFFFFFFFFFFFFFFFFFFFFFFFF AND CALLER PUSH20 0xFFFFFFFFFFFFFFFFFFFFFFFFFFFFFFFFFFFFFFFF AND EQ PUSH2 0x55E JUMPI PUSH1 0x40 MLOAD PUSH32 0x8C379A000000000000000000000000000000000000000000000000000000000 DUP2 MSTORE PUSH1 0x4 ADD PUSH2 0x555 SWAP1 PUSH2 0xBA7 JUMP JUMPDEST PUSH1 0x40 MLOAD DUP1 SWAP2 SUB SWAP1 REVERT JUMPDEST PUSH1 0x0 PUSH1 0x1 PUSH1 0x0 DUP4 PUSH20 0xFFFFFFFFFFFFFFFFFFFFFFFFFFFFFFFFFFFFFFFF AND PUSH20 0xFFFFFFFFFFFFFFFFFFFFFFFFFFFFFFFFFFFFFFFF AND DUP2 MSTORE PUSH1 0x20 ADD SWAP1 DUP2 MSTORE PUSH1 0x20 ADD PUSH1 0x0 KECCAK256 PUSH1 0x0 PUSH2 0x100 EXP DUP2 SLOAD DUP2 PUSH1 0xFF MUL NOT AND SWAP1 DUP4 ISZERO ISZERO MUL OR SWAP1 SSTORE POP DUP1 PUSH20 0xFFFFFFFFFFFFFFFFFFFFFFFFFFFFFFFFFFFFFFFF AND PUSH32 0x1ED1124975B36F977F88E26D9688D6772DB1EFC746521B431543FA5BC7E7D4A0 PUSH1 0x40 MLOAD PUSH1 0x40 MLOAD DUP1 SWAP2 SUB SWAP1 LOG2 POP JUMP JUMPDEST PUSH1 0x0 PUSH1 0x1 PUSH1 0x0 DUP4 PUSH20 0xFFFFFFFFFFFFFFFFFFFFFFFFFFFFFFFFFFFFFFFF AND PUSH20 0xFFFFFFFFFFFFFFFFFFFFFFFFFFFFFFFFFFFFFFFF AND DUP2 MSTORE PUSH1 0x20 ADD SWAP1 DUP2 MSTORE PUSH1 0x20 ADD PUSH1 0x0 KECCAK256 PUSH1 0x0 SWAP1 SLOAD SWAP1 PUSH2 0x100 EXP SWAP1 DIV PUSH1 0xFF AND SWAP1 POP SWAP2 SWAP1 POP JUMP JUMPDEST PUSH1 0x1 PUSH1 0x20 MSTORE DUP1 PUSH1 0x0 MSTORE PUSH1 0x40 PUSH1 0x0 KECCAK256 PUSH1 0x0 SWAP2 POP SLOAD SWAP1 PUSH2 0x100 EXP SWAP1 DIV PUSH1 0xFF AND DUP2 JUMP JUMPDEST PUSH1 0x0 PUSH1 0x40 MLOAD SWAP1 POP SWAP1 JUMP JUMPDEST PUSH1 0x0 DUP1 REVERT JUMPDEST PUSH1 0x0 DUP1 REVERT JUMPDEST PUSH1 0x0 PUSH20 0xFFFFFFFFFFFFFFFFFFFFFFFFFFFFFFFFFFFFFFFF DUP3 AND SWAP1 POP SWAP2 SWAP1 POP JUMP JUMPDEST PUSH1 0x0 PUSH2 0x6B1 DUP3 PUSH2 0x686 JUMP JUMPDEST SWAP1 POP SWAP2 SWAP1 POP JUMP JUMPDEST PUSH2 0x6C1 DUP2 PUSH2 0x6A6 JUMP JUMPDEST DUP2 EQ PUSH2 0x6CC JUMPI PUSH1 0x0 DUP1 REVERT JUMPDEST POP JUMP JUMPDEST PUSH1 0x0 DUP2 CALLDATALOAD SWAP1 POP PUSH2 0x6DE DUP2 PUSH2 0x6B8 JUMP JUMPDEST SWAP3 SWAP2 POP POP JUMP JUMPDEST PUSH1 0x0 PUSH1 0x20 DUP3 DUP5 SUB SLT ISZERO PUSH2 0x6FA JUMPI PUSH2 0x6F9 PUSH2 0x67C JUMP JUMPDEST JUMPDEST PUSH1 0x0 PUSH2 0x708 DUP5 DUP3 DUP6 ADD PUSH2 0x6CF JUMP JUMPDEST SWAP2 POP POP SWAP3 SWAP2 POP POP JUMP JUMPDEST PUSH1 0x0 DUP2 MLOAD SWAP1 POP SWAP2 SWAP1 POP JUMP JUMPDEST PUSH1 0x0 DUP3 DUP3 MSTORE PUSH1 0x20 DUP3 ADD SWAP1 POP SWAP3 SWAP2 POP POP JUMP JUMPDEST PUSH1 0x0 JUMPDEST DUP4 DUP2 LT ISZERO PUSH2 0x74B JUMPI DUP1 DUP3 ADD MLOAD DUP2 DUP5 ADD MSTORE PUSH1 0x20 DUP2 ADD SWAP1 POP PUSH2 0x730 JUMP JUMPDEST PUSH1 0x0 DUP5 DUP5 ADD MSTORE POP POP POP POP JUMP JUMPDEST PUSH1 0x0 PUSH1 0x1F NOT PUSH1 0x1F DUP4 ADD AND SWAP1 POP SWAP2 SWAP1 POP JUMP JUMPDEST PUSH1 0x0 PUSH2 0x773 DUP3 PUSH2 0x711 JUMP JUMPDEST PUSH2 0x77D DUP2 DUP6 PUSH2 0x71C JUMP JUMPDEST SWAP4 POP PUSH2 0x78D DUP2 DUP6 PUSH1 0x20 DUP7 ADD PUSH2 0x72D JUMP JUMPDEST PUSH2 0x796 DUP2 PUSH2 0x757 JUMP JUMPDEST DUP5 ADD SWAP2 POP POP SWAP3 SWAP2 POP POP JUMP JUMPDEST PUSH1 0x0 PUSH1 0x20 DUP3 ADD SWAP1 POP DUP2 DUP2 SUB PUSH1 0x0 DUP4 ADD MSTORE PUSH2 0x7BB DUP2 DUP5 PUSH2 0x768 JUMP JUMPDEST SWAP1 POP SWAP3 SWAP2 POP POP JUMP JUMPDEST PUSH1 0x0 DUP2 MLOAD SWAP1 POP SWAP2 SWAP1 POP JUMP JUMPDEST PUSH1 0x0 DUP3 DUP3 MSTORE PUSH1 0x20 DUP3 ADD SWAP1 POP SWAP3 SWAP2 POP POP JUMP JUMPDEST PUSH1 0x0 PUSH2 0x7EA DUP3 PUSH2 0x7C3 JUMP JUMPDEST PUSH2 0x7F4 DUP2 DUP6 PUSH2 0x7CE JUMP JUMPDEST SWAP4 POP PUSH2 0x804 DUP2 DUP6 PUSH1 0x20 DUP7 ADD PUSH2 0x72D JUMP JUMPDEST PUSH2 0x80D DUP2 PUSH2 0x757 JUMP JUMPDEST DUP5 ADD SWAP2 POP POP SWAP3 SWAP2 POP POP JUMP JUMPDEST PUSH1 0x0 PUSH1 0x20 DUP3 ADD SWAP1 POP DUP2 DUP2 SUB PUSH1 0x0 DUP4 ADD MSTORE PUSH2 0x832 DUP2 DUP5 PUSH2 0x7DF JUMP JUMPDEST SWAP1 POP SWAP3 SWAP2 POP POP JUMP JUMPDEST PUSH1 0x0 DUP1 REVERT JUMPDEST PUSH1 0x0 DUP1 REVERT JUMPDEST PUSH32 0x4E487B7100000000000000000000000000000000000000000000000000000000 PUSH1 0x0 MSTORE PUSH1 0x41 PUSH1 0x4 MSTORE PUSH1 0x24 PUSH1 0x0 REVERT JUMPDEST PUSH2 0x87C DUP3 PUSH2 0x757 JUMP JUMPDEST DUP2 ADD DUP2 DUP2 LT PUSH8 0xFFFFFFFFFFFFFFFF DUP3 GT OR ISZERO PUSH2 0x89B JUMPI PUSH2 0x89A PUSH2 0x844 JUMP JUMPDEST JUMPDEST DUP1 PUSH1 0x40 MSTORE POP POP POP JUMP JUMPDEST PUSH1 0x0 PUSH2 0x8AE PUSH2 0x672 JUMP JUMPDEST SWAP1 POP PUSH2 0x8BA DUP3 DUP3 PUSH2 0x873 JUMP JUMPDEST SWAP2 SWAP1 POP JUMP JUMPDEST PUSH1 0x0 PUSH8 0xFFFFFFFFFFFFFFFF DUP3 GT ISZERO PUSH2 0x8DA JUMPI PUSH2 0x8D9 PUSH2 0x844 JUMP JUMPDEST JUMPDEST PUSH2 0x8E3 DUP3 PUSH2 0x757 JUMP JUMPDEST SWAP1 POP PUSH1 0x20 DUP2 ADD SWAP1 POP SWAP2 SWAP1 POP JUMP JUMPDEST DUP3 DUP2 DUP4 CALLDATACOPY PUSH1 0x0 DUP4 DUP4 ADD MSTORE POP POP POP JUMP JUMPDEST PUSH1 0x0 PUSH2 0x912 PUSH2 0x90D DUP5 PUSH2 0x8BF JUMP JUMPDEST PUSH2 0x8A4 JUMP JUMPDEST SWAP1 POP DUP3 DUP2 MSTORE PUSH1 0x20 DUP2 ADD DUP5 DUP5 DUP5 ADD GT ISZERO PUSH2 0x92E JUMPI PUSH2 0x92D PUSH2 0x83F JUMP JUMPDEST JUMPDEST PUSH2 0x939 DUP5 DUP3 DUP6 PUSH2 0x8F0 JUMP JUMPDEST POP SWAP4 SWAP3 POP POP POP JUMP JUMPDEST PUSH1 0x0 DUP3 PUSH1 0x1F DUP4 ADD SLT PUSH2 0x956 JUMPI PUSH2 0x955 PUSH2 0x83A JUMP JUMPDEST JUMPDEST DUP2 CALLDATALOAD PUSH2 0x966 DUP5 DUP3 PUSH1 0x20 DUP7 ADD PUSH2 0x8FF JUMP JUMPDEST SWAP2 POP POP SWAP3 SWAP2 POP POP JUMP JUMPDEST PUSH1 0x0 PUSH8 0xFFFFFFFFFFFFFFFF DUP3 GT ISZERO PUSH2 0x98A JUMPI PUSH2 0x989 PUSH2 0x844 JUMP JUMPDEST JUMPDEST PUSH2 0x993 DUP3 PUSH2 0x757 JUMP JUMPDEST SWAP1 POP PUSH1 0x20 DUP2 ADD SWAP1 POP SWAP2 SWAP1 POP JUMP JUMPDEST PUSH1 0x0 PUSH2 0x9B3 PUSH2 0x9AE DUP5 PUSH2 0x96F JUMP JUMPDEST PUSH2 0x8A4 JUMP JUMPDEST SWAP1 POP DUP3 DUP2 MSTORE PUSH1 0x20 DUP2 ADD DUP5 DUP5 DUP5 ADD GT ISZERO PUSH2 0x9CF JUMPI PUSH2 0x9CE PUSH2 0x83F JUMP JUMPDEST JUMPDEST PUSH2 0x9DA DUP5 DUP3 DUP6 PUSH2 0x8F0 JUMP JUMPDEST POP SWAP4 SWAP3 POP POP POP JUMP JUMPDEST PUSH1 0x0 DUP3 PUSH1 0x1F DUP4 ADD SLT PUSH2 0x9F7 JUMPI PUSH2 0x9F6 PUSH2 0x83A JUMP JUMPDEST JUMPDEST DUP2 CALLDATALOAD PUSH2 0xA07 DUP5 DUP3 PUSH1 0x20 DUP7 ADD PUSH2 0x9A0 JUMP JUMPDEST SWAP2 POP POP SWAP3 SWAP2 POP POP JUMP JUMPDEST PUSH1 0x0 DUP1 PUSH1 0x0 PUSH1 0x60 DUP5 DUP7 SUB SLT ISZERO PUSH2 0xA29 JUMPI PUSH2 0xA28 PUSH2 0x67C JUMP JUMPDEST JUMPDEST PUSH1 0x0 PUSH2 0xA37 DUP7 DUP3 DUP8 ADD PUSH2 0x6CF JUMP JUMPDEST SWAP4 POP POP PUSH1 0x20 DUP5 ADD CALLDATALOAD PUSH8 0xFFFFFFFFFFFFFFFF DUP2 GT ISZERO PUSH2 0xA58 JUMPI PUSH2 0xA57 PUSH2 0x681 JUMP JUMPDEST JUMPDEST PUSH2 0xA64 DUP7 DUP3 DUP8 ADD PUSH2 0x941 JUMP JUMPDEST SWAP3 POP POP PUSH1 0x40 DUP5 ADD CALLDATALOAD PUSH8 0xFFFFFFFFFFFFFFFF DUP2 GT ISZERO PUSH2 0xA85 JUMPI PUSH2 0xA84 PUSH2 0x681 JUMP JUMPDEST JUMPDEST PUSH2 0xA91 DUP7 DUP3 DUP8 ADD PUSH2 0x9E2 JUMP JUMPDEST SWAP2 POP POP SWAP3 POP SWAP3 POP SWAP3 JUMP JUMPDEST PUSH2 0xAA4 DUP2 PUSH2 0x6A6 JUMP JUMPDEST DUP3 MSTORE POP POP JUMP JUMPDEST PUSH1 0x0 PUSH1 0x20 DUP3 ADD SWAP1 POP PUSH2 0xABF PUSH1 0x0 DUP4 ADD DUP5 PUSH2 0xA9B JUMP JUMPDEST SWAP3 SWAP2 POP POP JUMP JUMPDEST PUSH1 0x0 DUP2 ISZERO ISZERO SWAP1 POP SWAP2 SWAP1 POP JUMP JUMPDEST PUSH2 0xADA DUP2 PUSH2 0xAC5 JUMP JUMPDEST DUP3 MSTORE POP POP JUMP JUMPDEST PUSH1 0x0 PUSH1 0x20 DUP3 ADD SWAP1 POP PUSH2 0xAF5 PUSH1 0x0 DUP4 ADD DUP5 PUSH2 0xAD1 JUMP JUMPDEST SWAP3 SWAP2 POP POP JUMP JUMPDEST PUSH32 0x4E487B7100000000000000000000000000000000000000000000000000000000 PUSH1 0x0 MSTORE PUSH1 0x22 PUSH1 0x4 MSTORE PUSH1 0x24 PUSH1 0x0 REVERT JUMPDEST PUSH1 0x0 PUSH1 0x2 DUP3 DIV SWAP1 POP PUSH1 0x1 DUP3 AND DUP1 PUSH2 0xB42 JUMPI PUSH1 0x7F DUP3 AND SWAP2 POP JUMPDEST PUSH1 0x20 DUP3 LT DUP2 SUB PUSH2 0xB55 JUMPI PUSH2 0xB54 PUSH2 0xAFB JUMP JUMPDEST JUMPDEST POP SWAP2 SWAP1 POP JUMP JUMPDEST PUSH32 0x6E6F74206F776E65720000000000000000000000000000000000000000000000 PUSH1 0x0 DUP3 ADD MSTORE POP JUMP JUMPDEST PUSH1 0x0 PUSH2 0xB91 PUSH1 0x9 DUP4 PUSH2 0x7CE JUMP JUMPDEST SWAP2 POP PUSH2 0xB9C DUP3 PUSH2 0xB5B JUMP JUMPDEST PUSH1 0x20 DUP3 ADD SWAP1 POP SWAP2 SWAP1 POP JUMP JUMPDEST PUSH1 0x0 PUSH1 0x20 DUP3 ADD SWAP1 POP DUP2 DUP2 SUB PUSH1 0x0 DUP4 ADD MSTORE PUSH2 0xBC0 DUP2 PUSH2 0xB84 JUMP JUMPDEST SWAP1 POP SWAP2 SWAP1 POP JUMP JUMPDEST PUSH1 0x0 DUP2 SWAP1 POP DUP2 PUSH1 0x0 MSTORE PUSH1 0x20 PUSH1 0x0 KECCAK256 SWAP1 POP SWAP2 SWAP1 POP JUMP JUMPDEST PUSH1 0x0 PUSH1 0x20 PUSH1 0x1F DUP4 ADD DIV SWAP1 POP SWAP2 SWAP1 POP JUMP JUMPDEST PUSH1 0x0 DUP3 DUP3 SHL SWAP1 POP SWAP3 SWAP2 POP POP JUMP JUMPDEST PUSH1 0x0 PUSH1 0x8 DUP4 MUL PUSH2 0xC29 PUSH32 0xFFFFFFFFFFFFFFFFFFFFFFFFFFFFFFFFFFFFFFFFFFFFFFFFFFFFFFFFFFFFFFFF DUP3 PUSH2 0xBEC JUMP JUMPDEST PUSH2 0xC33 DUP7 DUP4 PUSH2 0xBEC JUMP JUMPDEST SWAP6 POP DUP1 NOT DUP5 AND SWAP4 POP DUP1 DUP7 AND DUP5 OR SWAP3 POP POP POP SWAP4 SWAP3 POP POP POP JUMP JUMPDEST PUSH1 0x0 DUP2 SWAP1 POP SWAP2 SWAP1 POP JUMP JUMPDEST PUSH1 0x0 DUP2 SWAP1 POP SWAP2 SWAP1 POP JUMP JUMPDEST PUSH1 0x0 PUSH2 0xC7A PUSH2 0xC75 PUSH2 0xC70 DUP5 PUSH2 0xC4B JUMP JUMPDEST PUSH2 0xC55 JUMP JUMPDEST PUSH2 0xC4B JUMP JUMPDEST SWAP1 POP SWAP2 SWAP1 POP JUMP JUMPDEST PUSH1 0x0 DUP2 SWAP1 POP SWAP2 SWAP1 POP JUMP JUMPDEST PUSH2 0xC94 DUP4 PUSH2 0xC5F JUMP JUMPDEST PUSH2 0xCA8 PUSH2 0xCA0 DUP3 PUSH2 0xC81 JUMP JUMPDEST DUP5 DUP5 SLOAD PUSH2 0xBF9 JUMP JUMPDEST DUP3 SSTORE POP POP POP POP JUMP JUMPDEST PUSH1 0x0 SWAP1 JUMP JUMPDEST PUSH2 0xCBD PUSH2 0xCB0 JUMP JUMPDEST PUSH2 0xCC8 DUP2 DUP5 DUP5 PUSH2 0xC8B JUMP JUMPDEST POP POP POP JUMP JUMPDEST JUMPDEST DUP2 DUP2 LT ISZERO PUSH2 0xCEC JUMPI PUSH2 0xCE1 PUSH1 0x0 DUP3 PUSH2 0xCB5 JUMP JUMPDEST PUSH1 0x1 DUP2 ADD SWAP1 POP PUSH2 0xCCE JUMP JUMPDEST POP POP JUMP JUMPDEST PUSH1 0x1F DUP3 GT ISZERO PUSH2 0xD31 JUMPI PUSH2 0xD02 DUP2 PUSH2 0xBC7 JUMP JUMPDEST PUSH2 0xD0B DUP5 PUSH2 0xBDC JUMP JUMPDEST DUP2 ADD PUSH1 0x20 DUP6 LT ISZERO PUSH2 0xD1A JUMPI DUP2 SWAP1 POP JUMPDEST PUSH2 0xD2E PUSH2 0xD26 DUP6 PUSH2 0xBDC JUMP JUMPDEST DUP4 ADD DUP3 PUSH2 0xCCD JUMP JUMPDEST POP POP JUMPDEST POP POP POP JUMP JUMPDEST PUSH1 0x0 DUP3 DUP3 SHR SWAP1 POP SWAP3 SWAP2 POP POP JUMP JUMPDEST PUSH1 0x0 PUSH2 0xD54 PUSH1 0x0 NOT DUP5 PUSH1 0x8 MUL PUSH2 0xD36 JUMP JUMPDEST NOT DUP1 DUP4 AND SWAP2 POP POP SWAP3 SWAP2 POP POP JUMP JUMPDEST PUSH1 0x0 PUSH2 0xD6D DUP4 DUP4 PUSH2 0xD43 JUMP JUMPDEST SWAP2 POP DUP3 PUSH1 0x2 MUL DUP3 OR SWAP1 POP SWAP3 SWAP2 POP POP JUMP JUMPDEST PUSH2 0xD86 DUP3 PUSH2 0x7C3 JUMP JUMPDEST PUSH8 0xFFFFFFFFFFFFFFFF DUP2 GT ISZERO PUSH2 0xD9F JUMPI PUSH2 0xD9E PUSH2 0x844 JUMP JUMPDEST JUMPDEST PUSH2 0xDA9 DUP3 SLOAD PUSH2 0xB2A JUMP JUMPDEST PUSH2 0xDB4 DUP3 DUP3 DUP6 PUSH2 0xCF0 JUMP JUMPDEST PUSH1 0x0 PUSH1 0x20 SWAP1 POP PUSH1 0x1F DUP4 GT PUSH1 0x1 DUP2 EQ PUSH2 0xDE7 JUMPI PUSH1 0x0 DUP5 ISZERO PUSH2 0xDD5 JUMPI DUP3 DUP8 ADD MLOAD SWAP1 POP JUMPDEST PUSH2 0xDDF DUP6 DUP3 PUSH2 0xD61 JUMP JUMPDEST DUP7 SSTORE POP PUSH2 0xE47 JUMP JUMPDEST PUSH1 0x1F NOT DUP5 AND PUSH2 0xDF5 DUP7 PUSH2 0xBC7 JUMP JUMPDEST PUSH1 0x0 JUMPDEST DUP3 DUP2 LT ISZERO PUSH2 0xE1D JUMPI DUP5 DUP10 ADD MLOAD DUP3 SSTORE PUSH1 0x1 DUP3 ADD SWAP2 POP PUSH1 0x20 DUP6 ADD SWAP5 POP PUSH1 0x20 DUP2 ADD SWAP1 POP PUSH2 0xDF8 JUMP JUMPDEST DUP7 DUP4 LT ISZERO PUSH2 0xE3A JUMPI DUP5 DUP10 ADD MLOAD PUSH2 0xE36 PUSH1 0x1F DUP10 AND DUP3 PUSH2 0xD43 JUMP JUMPDEST DUP4 SSTORE POP JUMPDEST PUSH1 0x1 PUSH1 0x2 DUP9 MUL ADD DUP9 SSTORE POP POP POP JUMPDEST POP POP POP POP POP POP JUMP JUMPDEST PUSH1 0x0 DUP2 SWAP1 POP DUP2 PUSH1 0x0 MSTORE PUSH1 0x20 PUSH1 0x0 KECCAK256 SWAP1 POP SWAP2 SWAP1 POP JUMP JUMPDEST PUSH1 0x1F DUP3 GT ISZERO PUSH2 0xEA5 JUMPI PUSH2 0xE76 DUP2 PUSH2 0xE4F JUMP JUMPDEST PUSH2 0xE7F DUP5 PUSH2 0xBDC JUMP JUMPDEST DUP2 ADD PUSH1 0x20 DUP6 LT ISZERO PUSH2 0xE8E JUMPI DUP2 SWAP1 POP JUMPDEST PUSH2 0xEA2 PUSH2 0xE9A DUP6 PUSH2 0xBDC JUMP JUMPDEST DUP4 ADD DUP3 PUSH2 0xCCD JUMP JUMPDEST POP POP JUMPDEST POP POP POP JUMP JUMPDEST PUSH2 0xEB3 DUP3 PUSH2 0x711 JUMP JUMPDEST PUSH8 0xFFFFFFFFFFFFFFFF DUP2 GT ISZERO PUSH2 0xECC JUMPI PUSH2 0xECB PUSH2 0x844 JUMP JUMPDEST JUMPDEST PUSH2 0xED6 DUP3 SLOAD PUSH2 0xB2A JUMP JUMPDEST PUSH2 0xEE1 DUP3 DUP3 DUP6 PUSH2 0xE64 JUMP JUMPDEST PUSH1 0x0 PUSH1 0x20 SWAP1 POP PUSH1 0x1F DUP4 GT PUSH1 0x1 DUP2 EQ PUSH2 0xF14 JUMPI PUSH1 0x0 DUP5 ISZERO PUSH2 0xF02 JUMPI DUP3 DUP8 ADD MLOAD SWAP1 POP JUMPDEST PUSH2 0xF0C DUP6 DUP3 PUSH2 0xD61 JUMP JUMPDEST DUP7 SSTORE POP PUSH2 0xF74 JUMP JUMPDEST PUSH1 0x1F NOT DUP5 AND PUSH2 0xF22 DUP7 PUSH2 0xE4F JUMP JUMPDEST PUSH1 0x0 JUMPDEST DUP3 DUP2 LT ISZERO PUSH2 0xF4A JUMPI DUP5 DUP10 ADD MLOAD DUP3 SSTORE PUSH1 0x1 DUP3 ADD SWAP2 POP PUSH1 0x20 DUP6 ADD SWAP5 POP PUSH1 0x20 DUP2 ADD SWAP1 POP PUSH2 0xF25 JUMP JUMPDEST DUP7 DUP4 LT ISZERO PUSH2 0xF67 JUMPI DUP5 DUP10 ADD MLOAD PUSH2 0xF63 PUSH1 0x1F DUP10 AND DUP3 PUSH2 0xD43 JUMP JUMPDEST DUP4 SSTORE POP JUMPDEST PUSH1 0x1 PUSH1 0x2 DUP9 MUL ADD DUP9 SSTORE POP POP POP JUMPDEST POP POP POP POP POP POP JUMP JUMPDEST PUSH1 0x0 PUSH1 0x40 DUP3 ADD SWAP1 POP DUP2 DUP2 SUB PUSH1 0x0 DUP4 ADD MSTORE PUSH2 0xF96 DUP2 DUP6 PUSH2 0x7DF JUMP JUMPDEST SWAP1 POP DUP2 DUP2 SUB PUSH1 0x20 DUP4 ADD MSTORE PUSH2 0xFAA DUP2 DUP5 PUSH2 0x768 JUMP JUMPDEST SWAP1 POP SWAP4 SWAP3 POP POP POP JUMP INVALID LOG2 PUSH5 0x6970667358 0x22 SLT KECCAK256 SWAP12 RETURNDATACOPY 0xBF 0xAA PUSH17 0x809E113397818D9BD3167244013C3F416 BLOCKHASH 0x25 0xE0 PC 0xE5 0xEB 0xEC POP LOG2 SWAP13 PUSH5 0x736F6C6343 STOP ADDMOD XOR STOP CALLER "},"methodIdentifiers":{"allowed(address)":"d63a8e11","didOf(address)":"364c707b","isAllowed(address)":"babcc539","owner()":"8da5cb5b","pubkeyOf(address)":"2f54205e","registerNode(address,string,bytes)":"6b3ddcdb","revokeNode(address)":"b76a8bd2"}}}}}