{
  "_format": "hh-sol-artifact-1",
  "contractName": "ModelRegistry",
  "sourceName": "contracts/ModelRegistry.sol",
  "abi": [
    {
      "inputs": [
        {
          "internalType": "address",
          "name": "tokenAddr",
          "type": "address"
        }
      ],
      "stateMutability": "nonpayable",
      "type": "constructor"
    },
    {
      "anonymous": false,
      "inputs": [
        {
          "indexed": true,
          "internalType": "uint256",
          "name": "version",
          "type": "uint256"
        },
        {
          "indexed": true,
          "internalType": "address",
          "name": "sender",
          "type": "address"
        },
        {
          "indexed": false,
          "internalType": "bytes32",
          "name": "updateHash",
          "type": "bytes32"
        },
        {
          "indexed": false,
          "internalType": "uint256",
          "name": "reward",
          "type": "uint256"
        }
      ],
      "name": "ModelUpdated",
      "type": "event"
    },
    {
      "inputs": [
        {
          "internalType": "address",
          "name": "",
          "type": "address"
        }
      ],
      "name": "contributions",
      "outputs": [
        {
          "internalType": "uint256",
          "name": "",
          "type": "uint256"
        }
      ],
      "stateMutability": "view",
      "type": "function"
    },
    {
      "inputs": [
        {
          "internalType": "bytes32",
          "name": "updateHash",
          "type": "bytes32"
        }
      ],
      "name": "recordUpdate",
      "outputs": [],
      "stateMutability": "nonpayable",
      "type": "function"
    },
    {
      "inputs": [],
      "name": "token",
      "outputs": [
        {
          "internalType": "contract IGridToken",
          "name": "",
          "type": "address"
        }
      ],
      "stateMutability": "view",
      "type": "function"
    },
    {
      "inputs": [],
      "name": "version",
      "outputs": [
        {
          "internalType": "uint256",
          "name": "",
          "type": "uint256"
        }
      ],
      "stateMutability": "view",
      "type": "function"
    },
    {
      "inputs": [
        {
          "internalType": "uint256",
          "name": "",
          "type": "uint256"
        }
      ],
      "name": "versionHash",
      "outputs": [
        {
          "internalType": "bytes32",
          "name": "",
          "type": "bytes32"
        }
      ],
      "stateMutability": "view",
      "type": "function"
    }
  ],
  "bytecode": "0x608060405234801561001057600080fd5b50604051610779380380610779833981810160405281019061003291906100dc565b80600360006101000a81548173ffffffffffffffffffffffffffffffffffffffff021916908373ffffffffffffffffffffffffffffffffffffffff16021790555050610109565b600080fd5b600073ffffffffffffffffffffffffffffffffffffffff82169050919050565b60006100a98261007e565b9050919050565b6100b98161009e565b81146100c457600080fd5b50565b6000815190506100d6816100b0565b92915050565b6000602082840312156100f2576100f1610079565b5b6000610100848285016100c7565b91505092915050565b610661806101186000396000f3fe608060405234801561001057600080fd5b50600436106100575760003560e01c806342e94c901461005c57806354fd4d501461008c5780637e37d8b5146100aa578063ba57218d146100da578063fc0c546a146100f6575b600080fd5b610076600480360381019061007191906103a6565b610114565b60405161008391906103ec565b60405180910390f35b61009461012c565b6040516100a191906103ec565b60405180910390f35b6100c460048036038101906100bf9190610433565b610132565b6040516100d19190610479565b60405180910390f35b6100f460048036038101906100ef91906104c0565b61014a565b005b6100fe61031d565b60405161010b919061054c565b60405180910390f35b60026020528060005260406000206000915090505481565b60005481565b60016020528060005260406000206000915090505481565b600160008082825461015c9190610596565b92505081905550806001600080548152602001908152602001600020819055506001600260003373ffffffffffffffffffffffffffffffffffffffff1673ffffffffffffffffffffffffffffffffffffffff16815260200190815260200160002060008282546101cc9190610596565b925050819055506000670de0b6b3a76400009050600073ffffffffffffffffffffffffffffffffffffffff16600360009054906101000a900473ffffffffffffffffffffffffffffffffffffffff1673ffffffffffffffffffffffffffffffffffffffff16146102c657600360009054906101000a900473ffffffffffffffffffffffffffffffffffffffff1673ffffffffffffffffffffffffffffffffffffffff166340c10f1933836040518363ffffffff1660e01b81526004016102939291906105d9565b600060405180830381600087803b1580156102ad57600080fd5b505af11580156102c1573d6000803e3d6000fd5b505050505b3373ffffffffffffffffffffffffffffffffffffffff166000547f4908e16a1b760a5504c2d3e36945537c1ace818639b33140747f4dc5d620d3258484604051610311929190610602565b60405180910390a35050565b600360009054906101000a900473ffffffffffffffffffffffffffffffffffffffff1681565b600080fd5b600073ffffffffffffffffffffffffffffffffffffffff82169050919050565b600061037382610348565b9050919050565b61038381610368565b811461038e57600080fd5b50565b6000813590506103a08161037a565b92915050565b6000602082840312156103bc576103bb610343565b5b60006103ca84828501610391565b91505092915050565b6000819050919050565b6103e6816103d3565b82525050565b600060208201905061040160008301846103dd565b92915050565b610410816103d3565b811461041b57600080fd5b50565b60008135905061042d81610407565b92915050565b60006020828403121561044957610448610343565b5b60006104578482850161041e565b91505092915050565b6000819050919050565b61047381610460565b82525050565b600060208201905061048e600083018461046a565b92915050565b61049d81610460565b81146104a857600080fd5b50565b6000813590506104ba81610494565b92915050565b6000602082840312156104d6576104d5610343565b5b60006104e4848285016104ab565b91505092915050565b6000819050919050565b600061051261050d61050884610348565b6104ed565b610348565b9050919050565b6000610524826104f7565b9050919050565b600061053682610519565b9050919050565b6105468161052b565b82525050565b6000602082019050610561600083018461053d565b92915050565b7f4e487b7100000000000000000000000000000000000000000000000000000000600052601160045260246000fd5b60006105a1826103d3565b91506105ac836103d3565b92508282019050808211156105c4576105c3610567565b5b92915050565b6105d381610368565b82525050565b60006040820190506105ee60008301856105ca565b6105fb60208301846103dd565b9392505050565b6000604082019050610617600083018561046a565b61062460208301846103dd565b939250505056fea26469706673582212201904f86de4c514506b12bff47a35bd51e356186427acf38002e00e302e5dc72464736f6c63430008180033",
  "linkReferences": {},
  "deployedLinkReferences": {}
}